{
  "contractName": "DeCloudFiles",
  "abi": [
    {
      "constant": false,
      "inputs": [
        {
          "name": "filehash",
          "type": "string"
        },
        {
          "name": "fileName",
          "type": "string"
        },
        {
          "name": "fileType",
          "type": "string"
        },
        {
          "name": "storedIn",
          "type": "string"
        },
        {
          "name": "storageOwner",
          "type": "address"
        },
        {
          "name": "splitInto",
          "type": "uint256"
        },
        {
          "name": "uploadDate",
          "type": "string"
        }
      ],
      "name": "addFile",
      "outputs": [],
      "payable": true,
      "stateMutability": "payable",
      "type": "function"
    },
    {
      "constant": true,
      "inputs": [
        {
          "name": "position",
          "type": "uint256"
        }
      ],
      "name": "getFile",
      "outputs": [
        {
          "name": "",
          "type": "string"
        },
        {
          "name": "",
          "type": "string"
        },
        {
          "name": "",
          "type": "string"
        },
        {
          "name": "",
          "type": "string"
        },
        {
          "name": "",
          "type": "uint256"
        },
        {
          "name": "",
          "type": "string"
        }
      ],
      "payable": false,
      "stateMutability": "view",
      "type": "function"
    },
    {
      "constant": true,
      "inputs": [],
      "name": "getNoOfFile",
      "outputs": [
        {
          "name": "",
          "type": "uint256"
        }
      ],
      "payable": false,
      "stateMutability": "view",
      "type": "function"
    },
    {
      "constant": true,
      "inputs": [],
      "name": "getAmount",
      "outputs": [
        {
          "name": "",
          "type": "uint256"
        }
      ],
      "payable": false,
      "stateMutability": "view",
      "type": "function"
    },
    {
      "constant": false,
      "inputs": [],
      "name": "getPaid",
      "outputs": [],
      "payable": true,
      "stateMutability": "payable",
      "type": "function"
    }
  ],
  "bytecode": "0x608060405234801561001057600080fd5b50610f92806100206000396000f3fe60806040526004361061006d576000357c0100000000000000000000000000000000000000000000000000000000900463ffffffff1680632bfda3131461007257806387cffb12146102dd578063abe1802d14610308578063cf41d6f814610649578063d321fe2914610653575b600080fd5b34801561007e57600080fd5b506100ab6004803603602081101561009557600080fd5b810190808035906020019092919050505061067e565b60405180806020018060200180602001806020018781526020018060200186810386528c818151815260200191508051906020019080838360005b838110156101015780820151818401526020810190506100e6565b50505050905090810190601f16801561012e5780820380516001836020036101000a031916815260200191505b5086810385528b818151815260200191508051906020019080838360005b8381101561016757808201518184015260208101905061014c565b50505050905090810190601f1680156101945780820380516001836020036101000a031916815260200191505b5086810384528a818151815260200191508051906020019080838360005b838110156101cd5780820151818401526020810190506101b2565b50505050905090810190601f1680156101fa5780820380516001836020036101000a031916815260200191505b50868103835289818151815260200191508051906020019080838360005b83811015610233578082015181840152602081019050610218565b50505050905090810190601f1680156102605780820380516001836020036101000a031916815260200191505b50868103825287818151815260200191508051906020019080838360005b8381101561029957808201518184015260208101905061027e565b50505050905090810190601f1680156102c65780820380516001836020036101000a031916815260200191505b509b50505050505050505050505060405180910390f35b3480156102e957600080fd5b506102f2610a6e565b6040518082815260200191505060405180910390f35b610647600480360360e081101561031e57600080fd5b810190808035906020019064010000000081111561033b57600080fd5b82018360208201111561034d57600080fd5b8035906020019184600183028401116401000000008311171561036f57600080fd5b91908080601f016020809104026020016040519081016040528093929190818152602001838380828437600081840152601f19601f820116905080830192505050505050509192919290803590602001906401000000008111156103d257600080fd5b8201836020820111156103e457600080fd5b8035906020019184600183028401116401000000008311171561040657600080fd5b91908080601f016020809104026020016040519081016040528093929190818152602001838380828437600081840152601f19601f8201169050808301925050505050505091929192908035906020019064010000000081111561046957600080fd5b82018360208201111561047b57600080fd5b8035906020019184600183028401116401000000008311171561049d57600080fd5b91908080601f016020809104026020016040519081016040528093929190818152602001838380828437600081840152601f19601f8201169050808301925050505050505091929192908035906020019064010000000081111561050057600080fd5b82018360208201111561051257600080fd5b8035906020019184600183028401116401000000008311171561053457600080fd5b91908080601f016020809104026020016040519081016040528093929190818152602001838380828437600081840152601f19601f820116905080830192505050505050509192919290803573ffffffffffffffffffffffffffffffffffffffff16906020019092919080359060200190929190803590602001906401000000008111156105c157600080fd5b8201836020820111156105d357600080fd5b803590602001918460018302840111640100000000831117156105f557600080fd5b91908080601f016020809104026020016040519081016040528093929190818152602001838380828437600081840152601f19601f820116905080830192505050505050509192919290505050610ab5565b005b610651610c8f565b005b34801561065f57600080fd5b50610668610e43565b6040518082815260200191505060405180910390f35b60608060608060006060610690610e8a565b6000803373ffffffffffffffffffffffffffffffffffffffff1673ffffffffffffffffffffffffffffffffffffffff168152602001908152602001600020888154811015156106db57fe5b906000526020600020906006020160c06040519081016040529081600082018054600181600116156101000203166002900480601f01602080910402602001604051908101604052809291908181526020018280546001816001161561010002031660029004801561078e5780601f106107635761010080835404028352916020019161078e565b820191906000526020600020905b81548152906001019060200180831161077157829003601f168201915b50505050508152602001600182018054600181600116156101000203166002900480601f0160208091040260200160405190810160405280929190818152602001828054600181600116156101000203166002900480156108305780601f1061080557610100808354040283529160200191610830565b820191906000526020600020905b81548152906001019060200180831161081357829003601f168201915b50505050508152602001600282018054600181600116156101000203166002900480601f0160208091040260200160405190810160405280929190818152602001828054600181600116156101000203166002900480156108d25780601f106108a7576101008083540402835291602001916108d2565b820191906000526020600020905b8154815290600101906020018083116108b557829003601f168201915b50505050508152602001600382018054600181600116156101000203166002900480601f0160208091040260200160405190810160405280929190818152602001828054600181600116156101000203166002900480156109745780601f1061094957610100808354040283529160200191610974565b820191906000526020600020905b81548152906001019060200180831161095757829003601f168201915b5050505050815260200160048201548152602001600582018054600181600116156101000203166002900480601f016020809104026020016040519081016040528092919081815260200182805460018160011615610100020316600290048015610a205780601f106109f557610100808354040283529160200191610a20565b820191906000526020600020905b815481529060010190602001808311610a0357829003601f168201915b5050505050815250509050806000015181602001518260400151836060015184608001518560a001518595508494508393508292508090509650965096509650965096505091939550919395565b6000600160003373ffffffffffffffffffffffffffffffffffffffff1673ffffffffffffffffffffffffffffffffffffffff16815260200190815260200160002054905090565b6000803373ffffffffffffffffffffffffffffffffffffffff1673ffffffffffffffffffffffffffffffffffffffff16815260200190815260200160002060c06040519081016040528089815260200188815260200187815260200186815260200184815260200183815250908060018154018082558091505090600182039060005260206000209060060201600090919290919091506000820151816000019080519060200190610b68929190610ec1565b506020820151816001019080519060200190610b85929190610ec1565b506040820151816002019080519060200190610ba2929190610ec1565b506060820151816003019080519060200190610bbf929190610ec1565b506080820151816004015560a0820151816005019080519060200190610be6929190610ec1565b50505050600160003373ffffffffffffffffffffffffffffffffffffffff1673ffffffffffffffffffffffffffffffffffffffff1681526020019081526020016000206000815480929190600101919050555034600260008573ffffffffffffffffffffffffffffffffffffffff1673ffffffffffffffffffffffffffffffffffffffff1681526020019081526020016000206000828254019250508190555050505050505050565b6000600260003373ffffffffffffffffffffffffffffffffffffffff1673ffffffffffffffffffffffffffffffffffffffff168152602001908152602001600020549050600081111515610d4b576040517f08c379a00000000000000000000000000000000000000000000000000000000081526004018080602001828103825260128152602001807f496e73756666696369656e74206d6f6e6579000000000000000000000000000081525060200191505060405180910390fd5b600115153373ffffffffffffffffffffffffffffffffffffffff166108fc839081150290604051600060405180830381858888f193505050501515141515610dfb576040517f08c379a00000000000000000000000000000000000000000000000000000000081526004018080602001828103825260128152602001807f5472616e73616374696f6e204661696c6564000000000000000000000000000081525060200191505060405180910390fd5b6000600260003373ffffffffffffffffffffffffffffffffffffffff1673ffffffffffffffffffffffffffffffffffffffff1681526020019081526020016000208190555050565b6000600260003373ffffffffffffffffffffffffffffffffffffffff1673ffffffffffffffffffffffffffffffffffffffff16815260200190815260200160002054905090565b60c0604051908101604052806060815260200160608152602001606081526020016060815260200160008152602001606081525090565b828054600181600116156101000203166002900490600052602060002090601f016020900481019282601f10610f0257805160ff1916838001178555610f30565b82800160010185558215610f30579182015b82811115610f2f578251825591602001919060010190610f14565b5b509050610f3d9190610f41565b5090565b610f6391905b80821115610f5f576000816000905550600101610f47565b5090565b9056fea165627a7a72305820416b0a97bb98551a3a925ace80b53c09c5cc481a5a399ae10ae69437f7513c740029",
  "source": "pragma solidity ^0.5.0;\r\n\r\ncontract DeCloudFiles { \r\n\r\n    struct FileDetails {\r\n        string hashValueOfFile; \r\n        string nameOfFile;  \r\n        string typeOfFile;\r\n        string storedIn;\r\n        uint256 splitInto;\r\n        string uploadDate;\r\n    }\r\n\r\n    mapping (address => FileDetails[]) files;\r\n    mapping (address => uint256) noOfFiles;\r\n    mapping (address => uint) amountGainedBy; \r\n\r\n    function addFile (string memory filehash, string memory fileName, string memory fileType,string memory storedIn,address storageOwner,uint256 splitInto,string memory uploadDate) public payable {\r\n        files[msg.sender].push(FileDetails(filehash,fileName,fileType,storedIn,splitInto,uploadDate));\r\n        noOfFiles[msg.sender]++;\r\n        amountGainedBy[storageOwner] += msg.value;\r\n    }\r\n\r\n    function getFile(uint256 position) public view returns (string memory, string memory, string memory, string memory, uint256, string memory) {\r\n        FileDetails memory file = files[msg.sender][position];\r\n        return ( file.hashValueOfFile, file.nameOfFile, file.typeOfFile, file.storedIn,file.splitInto,file.uploadDate);\r\n    }\r\n\r\n    function getNoOfFile() public view returns (uint256){\r\n        return noOfFiles[msg.sender];\r\n    }\r\n\r\n    function getAmount() public view returns (uint){\r\n        return amountGainedBy[msg.sender];\r\n    }\r\n\r\n    function getPaid() public payable{\r\n        uint amount = amountGainedBy[msg.sender];\r\n        require(amount > 0,\"Insufficient money\");\r\n        require(msg.sender.send(amount) == true,\"Transaction Failed\");\r\n        amountGainedBy[msg.sender] = 0;\r\n    }\r\n}\r\n",
  "sourcePath": "/home/aaj/Documents/Workspace/DeCloud/truffle/contracts/DeCloudFiles.sol",
  "compiler": {
    "name": "solc",
    "version": "0.5.0+commit.1d4f565a.Emscripten.clang"
  },
  "schemaVersion": "3.4.6",
  "updatedAt": "2022-04-03T07:48:19.394Z",
  "networkType": "ethereum",
  "devdoc": {
    "methods": {}
  },
  "userdoc": {
    "methods": {}
  }
}